{
  "address": "0xe7f1725E7734CE288F8367e1Bb143E90bb3F0512",
  "abi": [
    {
      "inputs": [
        {
          "internalType": "address",
          "name": "priceFeed",
          "type": "address"
        }
      ],
      "stateMutability": "nonpayable",
      "type": "constructor"
    },
    {
      "inputs": [],
      "name": "FundMe__NotOwner",
      "type": "error"
    },
    {
      "inputs": [],
      "name": "MINIMUM_USD",
      "outputs": [
        {
          "internalType": "uint256",
          "name": "",
          "type": "uint256"
        }
      ],
      "stateMutability": "view",
      "type": "function"
    },
    {
      "inputs": [],
      "name": "cheaperWithdraw",
      "outputs": [],
      "stateMutability": "nonpayable",
      "type": "function"
    },
    {
      "inputs": [],
      "name": "fund",
      "outputs": [],
      "stateMutability": "payable",
      "type": "function"
    },
    {
      "inputs": [
        {
          "internalType": "address",
          "name": "fundingAddress",
          "type": "address"
        }
      ],
      "name": "getAddressToAmountFunded",
      "outputs": [
        {
          "internalType": "uint256",
          "name": "",
          "type": "uint256"
        }
      ],
      "stateMutability": "view",
      "type": "function"
    },
    {
      "inputs": [
        {
          "internalType": "uint256",
          "name": "index",
          "type": "uint256"
        }
      ],
      "name": "getFunder",
      "outputs": [
        {
          "internalType": "address",
          "name": "",
          "type": "address"
        }
      ],
      "stateMutability": "view",
      "type": "function"
    },
    {
      "inputs": [],
      "name": "getOwner",
      "outputs": [
        {
          "internalType": "address",
          "name": "",
          "type": "address"
        }
      ],
      "stateMutability": "view",
      "type": "function"
    },
    {
      "inputs": [],
      "name": "getPriceFeed",
      "outputs": [
        {
          "internalType": "contract AggregatorV3Interface",
          "name": "",
          "type": "address"
        }
      ],
      "stateMutability": "view",
      "type": "function"
    },
    {
      "inputs": [],
      "name": "getVersion",
      "outputs": [
        {
          "internalType": "uint256",
          "name": "",
          "type": "uint256"
        }
      ],
      "stateMutability": "view",
      "type": "function"
    },
    {
      "inputs": [],
      "name": "i_owner",
      "outputs": [
        {
          "internalType": "address",
          "name": "",
          "type": "address"
        }
      ],
      "stateMutability": "view",
      "type": "function"
    },
    {
      "inputs": [
        {
          "internalType": "address",
          "name": "",
          "type": "address"
        }
      ],
      "name": "s_addressToAmountFunded",
      "outputs": [
        {
          "internalType": "uint256",
          "name": "",
          "type": "uint256"
        }
      ],
      "stateMutability": "view",
      "type": "function"
    },
    {
      "inputs": [],
      "name": "withdraw",
      "outputs": [],
      "stateMutability": "nonpayable",
      "type": "function"
    }
  ],
  "transactionHash": "0x44e6346d64f869927a3f3b900c58fa7afa086381e5941c26b19fc92e665ce56d",
  "args": [
    "0x5FbDB2315678afecb367f032d93F642f64180aa3"
  ],
  "numDeployments": 1,
  "solcInputHash": "2455ce66be94fedb724dcb90cde9e7c6",
  "bytecode": "0x60a0604052600080553480156200001557600080fd5b50604051620016883803806200168883398181016040528101906200003b919062000124565b80600260006101000a81548173ffffffffffffffffffffffffffffffffffffffff021916908373ffffffffffffffffffffffffffffffffffffffff1602179055503373ffffffffffffffffffffffffffffffffffffffff1660808173ffffffffffffffffffffffffffffffffffffffff1660601b815250505062000156565b600080fd5b600073ffffffffffffffffffffffffffffffffffffffff82169050919050565b6000620000ec82620000bf565b9050919050565b620000fe81620000df565b81146200010a57600080fd5b50565b6000815190506200011e81620000f3565b92915050565b6000602082840312156200013d576200013c620000ba565b5b60006200014d848285016200010d565b91505092915050565b60805160601c6114f762000191600039600081816103710152818161061b015281816107a60152818161099d0152610a7d01526114f76000f3fe60806040526004361061009c5760003560e01c8063893d20e811610064578063893d20e8146101885780639e87a5cd146101b3578063b60d4288146101de578063be2693f0146101e8578063d7b4750c146101ff578063dba6335f1461023c5761009c565b80630343fb25146100a15780630d8e6e2c146100de5780631bf6132d146101095780633ccfd60b146101465780636b69a5921461015d575b600080fd5b3480156100ad57600080fd5b506100c860048036038101906100c39190610d4a565b610267565b6040516100d59190610d90565b60405180910390f35b3480156100ea57600080fd5b506100f36102b0565b6040516101009190610d90565b60405180910390f35b34801561011557600080fd5b50610130600480360381019061012b9190610d4a565b610357565b60405161013d9190610d90565b60405180910390f35b34801561015257600080fd5b5061015b61036f565b005b34801561016957600080fd5b5061017261060a565b60405161017f9190610d90565b60405180910390f35b34801561019457600080fd5b5061019d610617565b6040516101aa9190610dba565b60405180910390f35b3480156101bf57600080fd5b506101c861063f565b6040516101d59190610e34565b60405180910390f35b6101e6610669565b005b3480156101f457600080fd5b506101fd6107a4565b005b34801561020b57600080fd5b5061022660048036038101906102219190610e7b565b610a33565b6040516102339190610dba565b60405180910390f35b34801561024857600080fd5b50610251610a7b565b60405161025e9190610dba565b60405180910390f35b6000600360008373ffffffffffffffffffffffffffffffffffffffff1673ffffffffffffffffffffffffffffffffffffffff168152602001908152602001600020549050919050565b6000600260009054906101000a900473ffffffffffffffffffffffffffffffffffffffff1673ffffffffffffffffffffffffffffffffffffffff166354fd4d506040518163ffffffff1660e01b815260040160206040518083038186803b15801561031a57600080fd5b505afa15801561032e573d6000803e3d6000fd5b505050506040513d601f19601f820116820180604052508101906103529190610ebd565b905090565b60036020528060005260406000206000915090505481565b7f000000000000000000000000000000000000000000000000000000000000000073ffffffffffffffffffffffffffffffffffffffff163373ffffffffffffffffffffffffffffffffffffffff16146103f4576040517f579610db00000000000000000000000000000000000000000000000000000000815260040160405180910390fd5b60005b6001805490508110156104fa576104456040518060400160405280600881526020017f636f756e74726572000000000000000000000000000000000000000000000000815250600054610a9f565b60006001828154811061045b5761045a610eea565b5b9060005260206000200160009054906101000a900473ffffffffffffffffffffffffffffffffffffffff1690506000600360008373ffffffffffffffffffffffffffffffffffffffff1673ffffffffffffffffffffffffffffffffffffffff1681526020019081526020016000208190555060016000808282546104df9190610f48565b925050819055505080806104f290610f9e565b9150506103f7565b50600067ffffffffffffffff81111561051657610515610fe7565b5b6040519080825280602002602001820160405280156105445781602001602082028036833780820191505090505b506001908051906020019061055a929190610c40565b5060003373ffffffffffffffffffffffffffffffffffffffff164760405161058190611047565b60006040518083038185875af1925050503d80600081146105be576040519150601f19603f3d011682016040523d82523d6000602084013e6105c3565b606091505b5050905080610607576040517f08c379a00000000000000000000000000000000000000000000000000000000081526004016105fe906110b9565b60405180910390fd5b50565b6802b5e3af16b188000081565b60007f0000000000000000000000000000000000000000000000000000000000000000905090565b6000600260009054906101000a900473ffffffffffffffffffffffffffffffffffffffff16905090565b6802b5e3af16b18800006106a8600260009054906101000a900473ffffffffffffffffffffffffffffffffffffffff1634610b3b90919063ffffffff16565b10156106e9576040517f08c379a00000000000000000000000000000000000000000000000000000000081526004016106e090611125565b60405180910390fd5b34600360003373ffffffffffffffffffffffffffffffffffffffff1673ffffffffffffffffffffffffffffffffffffffff16815260200190815260200160002060008282546107389190610f48565b925050819055506001339080600181540180825580915050600190039060005260206000200160009091909190916101000a81548173ffffffffffffffffffffffffffffffffffffffff021916908373ffffffffffffffffffffffffffffffffffffffff160217905550565b7f000000000000000000000000000000000000000000000000000000000000000073ffffffffffffffffffffffffffffffffffffffff163373ffffffffffffffffffffffffffffffffffffffff1614610829576040517f579610db00000000000000000000000000000000000000000000000000000000815260040160405180910390fd5b600060018054806020026020016040519081016040528092919081815260200182805480156108ad57602002820191906000526020600020905b8160009054906101000a900473ffffffffffffffffffffffffffffffffffffffff1673ffffffffffffffffffffffffffffffffffffffff1681526020019060010190808311610863575b5050505050905060005b81518110156109385760008282815181106108d5576108d4610eea565b5b602002602001015190506000600360008373ffffffffffffffffffffffffffffffffffffffff1673ffffffffffffffffffffffffffffffffffffffff1681526020019081526020016000208190555050808061093090610f9e565b9150506108b7565b50600067ffffffffffffffff81111561095457610953610fe7565b5b6040519080825280602002602001820160405280156109825781602001602082028036833780820191505090505b5060019080519060200190610998929190610c40565b5060007f000000000000000000000000000000000000000000000000000000000000000073ffffffffffffffffffffffffffffffffffffffff16476040516109df90611047565b60006040518083038185875af1925050503d8060008114610a1c576040519150601f19603f3d011682016040523d82523d6000602084013e610a21565b606091505b5050905080610a2f57600080fd5b5050565b600060018281548110610a4957610a48610eea565b5b9060005260206000200160009054906101000a900473ffffffffffffffffffffffffffffffffffffffff169050919050565b7f000000000000000000000000000000000000000000000000000000000000000081565b610b378282604051602401610ab59291906111cd565b6040516020818303038152906040527fb60e72cc000000000000000000000000000000000000000000000000000000007bffffffffffffffffffffffffffffffffffffffffffffffffffffffff19166020820180517bffffffffffffffffffffffffffffffffffffffffffffffffffffffff8381831617835250505050610b77565b5050565b600080610b4783610ba0565b90506000670de0b6b3a76400008583610b6091906111fd565b610b6a9190611286565b9050809250505092915050565b60008151905060006a636f6e736f6c652e6c6f679050602083016000808483855afa5050505050565b6000808273ffffffffffffffffffffffffffffffffffffffff1663feaf968c6040518163ffffffff1660e01b815260040160a06040518083038186803b158015610be957600080fd5b505afa158015610bfd573d6000803e3d6000fd5b505050506040513d601f19601f82011682018060405250810190610c21919061132f565b5050509150506402540be40081610c3891906113aa565b915050919050565b828054828255906000526020600020908101928215610cb9579160200282015b82811115610cb85782518260006101000a81548173ffffffffffffffffffffffffffffffffffffffff021916908373ffffffffffffffffffffffffffffffffffffffff16021790555091602001919060010190610c60565b5b509050610cc69190610cca565b5090565b5b80821115610ce3576000816000905550600101610ccb565b5090565b600080fd5b600073ffffffffffffffffffffffffffffffffffffffff82169050919050565b6000610d1782610cec565b9050919050565b610d2781610d0c565b8114610d3257600080fd5b50565b600081359050610d4481610d1e565b92915050565b600060208284031215610d6057610d5f610ce7565b5b6000610d6e84828501610d35565b91505092915050565b6000819050919050565b610d8a81610d77565b82525050565b6000602082019050610da56000830184610d81565b92915050565b610db481610d0c565b82525050565b6000602082019050610dcf6000830184610dab565b92915050565b6000819050919050565b6000610dfa610df5610df084610cec565b610dd5565b610cec565b9050919050565b6000610e0c82610ddf565b9050919050565b6000610e1e82610e01565b9050919050565b610e2e81610e13565b82525050565b6000602082019050610e496000830184610e25565b92915050565b610e5881610d77565b8114610e6357600080fd5b50565b600081359050610e7581610e4f565b92915050565b600060208284031215610e9157610e90610ce7565b5b6000610e9f84828501610e66565b91505092915050565b600081519050610eb781610e4f565b92915050565b600060208284031215610ed357610ed2610ce7565b5b6000610ee184828501610ea8565b91505092915050565b7f4e487b7100000000000000000000000000000000000000000000000000000000600052603260045260246000fd5b7f4e487b7100000000000000000000000000000000000000000000000000000000600052601160045260246000fd5b6000610f5382610d77565b9150610f5e83610d77565b9250827fffffffffffffffffffffffffffffffffffffffffffffffffffffffffffffffff03821115610f9357610f92610f19565b5b828201905092915050565b6000610fa982610d77565b91507fffffffffffffffffffffffffffffffffffffffffffffffffffffffffffffffff821415610fdc57610fdb610f19565b5b600182019050919050565b7f4e487b7100000000000000000000000000000000000000000000000000000000600052604160045260246000fd5b600081905092915050565b50565b6000611031600083611016565b915061103c82611021565b600082019050919050565b600061105282611024565b9150819050919050565b600082825260208201905092915050565b7f63616c6c206661696c6564000000000000000000000000000000000000000000600082015250565b60006110a3600b8361105c565b91506110ae8261106d565b602082019050919050565b600060208201905081810360008301526110d281611096565b9050919050565b7f596f75206e65656420746f207370656e64206d6f726520455448210000000000600082015250565b600061110f601b8361105c565b915061111a826110d9565b602082019050919050565b6000602082019050818103600083015261113e81611102565b9050919050565b600081519050919050565b60005b8381101561116e578082015181840152602081019050611153565b8381111561117d576000848401525b50505050565b6000601f19601f8301169050919050565b600061119f82611145565b6111a9818561105c565b93506111b9818560208601611150565b6111c281611183565b840191505092915050565b600060408201905081810360008301526111e78185611194565b90506111f66020830184610d81565b9392505050565b600061120882610d77565b915061121383610d77565b9250817fffffffffffffffffffffffffffffffffffffffffffffffffffffffffffffffff048311821515161561124c5761124b610f19565b5b828202905092915050565b7f4e487b7100000000000000000000000000000000000000000000000000000000600052601260045260246000fd5b600061129182610d77565b915061129c83610d77565b9250826112ac576112ab611257565b5b828204905092915050565b600069ffffffffffffffffffff82169050919050565b6112d6816112b7565b81146112e157600080fd5b50565b6000815190506112f3816112cd565b92915050565b6000819050919050565b61130c816112f9565b811461131757600080fd5b50565b60008151905061132981611303565b92915050565b600080600080600060a0868803121561134b5761134a610ce7565b5b6000611359888289016112e4565b955050602061136a8882890161131a565b945050604061137b88828901610ea8565b935050606061138c88828901610ea8565b925050608061139d888289016112e4565b9150509295509295909350565b60006113b5826112f9565b91506113c0836112f9565b9250827f7fffffffffffffffffffffffffffffffffffffffffffffffffffffffffffffff04821160008413600084131616156113ff576113fe610f19565b5b817f8000000000000000000000000000000000000000000000000000000000000000058312600084126000841316161561143c5761143b610f19565b5b827f8000000000000000000000000000000000000000000000000000000000000000058212600084136000841216161561147957611478610f19565b5b827f7fffffffffffffffffffffffffffffffffffffffffffffffffffffffffffffff05821260008412600084121616156114b6576114b5610f19565b5b82820290509291505056fea26469706673582212205600d779747d5a3e6480fb338505490dc1319687375e2326a4ee268547b3af9b64736f6c63430008080033",
  "devdoc": {
    "author": "Sameer Varpe",
    "details": "This implements  price feeds as our library",
    "kind": "dev",
    "methods": {
      "getAddressToAmountFunded(address)": {
        "params": {
          "fundingAddress": "the address of the funder"
        },
        "returns": {
          "_0": "the amount funded"
        }
      }
    },
    "title": "A Contract for Crowd Funding",
    "version": 1
  },
  "userdoc": {
    "kind": "user",
    "methods": {
      "constructor": {
        "notice": "constructor(address  priceFeedAddres) { i_owner = msg.sender; priceFeed = AggregatorV3Interface(priceFeedAddres); //refer to priceconvertor.sol for reference //we can take this priceFeedAddres as a global var  and use  it   with priceconvertor // with hardhat  fund me we  want  t o avoid  hardcoding  of  addres with v3interface }"
      },
      "getAddressToAmountFunded(address)": {
        "notice": "Gets the amount that an address has funded"
      }
    },
    "notice": "This contract is to demo a sample funding  contract",
    "version": 1
  },
  "storageLayout": {
    "storage": [
      {
        "astId": 64,
        "contract": "contracts/FundMe.sol:FundMe",
        "label": "cnt",
        "offset": 0,
        "slot": "0",
        "type": "t_uint256"
      },
      {
        "astId": 67,
        "contract": "contracts/FundMe.sol:FundMe",
        "label": "s_funders",
        "offset": 0,
        "slot": "1",
        "type": "t_array(t_address)dyn_storage"
      },
      {
        "astId": 70,
        "contract": "contracts/FundMe.sol:FundMe",
        "label": "s_priceFeed",
        "offset": 0,
        "slot": "2",
        "type": "t_contract(AggregatorV3Interface)45"
      },
      {
        "astId": 74,
        "contract": "contracts/FundMe.sol:FundMe",
        "label": "s_addressToAmountFunded",
        "offset": 0,
        "slot": "3",
        "type": "t_mapping(t_address,t_uint256)"
      }
    ],
    "types": {
      "t_address": {
        "encoding": "inplace",
        "label": "address",
        "numberOfBytes": "20"
      },
      "t_array(t_address)dyn_storage": {
        "base": "t_address",
        "encoding": "dynamic_array",
        "label": "address[]",
        "numberOfBytes": "32"
      },
      "t_contract(AggregatorV3Interface)45": {
        "encoding": "inplace",
        "label": "contract AggregatorV3Interface",
        "numberOfBytes": "20"
      },
      "t_mapping(t_address,t_uint256)": {
        "encoding": "mapping",
        "key": "t_address",
        "label": "mapping(address => uint256)",
        "numberOfBytes": "32",
        "value": "t_uint256"
      },
      "t_uint256": {
        "encoding": "inplace",
        "label": "uint256",
        "numberOfBytes": "32"
      }
    }
  }
}